:100000000C94FB020C9442030C9442030C941E27A4
:100010000C9442030C9442030C9442030C9442034C
:100020000C9442030C9442030C94D9190C941519A6
:100030000C94F1220C9442030C9442030C9442035E
:100040000C9442030C9442030C9442030C9442031C
:100050000C9442030C9487220C9442030C944203A8
:100060000C9442030C9442030C9442030C944203FC
:100070000C9442030C9442030C9442030C944203EC
:100080000C9442030C9442030C9442030C944203DC
:100090000C9442030C9442030C9442030C944203CC
:1000A0000C9442030C9442030C944203400D400D07
:1000B0007A0D7A0DD30DEF0D850F850FFA0DD80E41
:1000C000E90EE90E30175717ED185717ED189F175F
:1000D000C217ED18B118C418C71FC71FDA1FDA1FDF
:1000E000D01FDA1FDA1FDA1FC71FC71FD51FDA1F7D
:1000F000DA1FD51F00010101010101010101020206
:1001000002020202020202030303030303030304C5
:100110000404040404040505050505060606060690
:10012000070707070708080808090909090A0A0A4A
:100130000B0B0B0C0C0C0D0D0D0E0E0E0F0F0F10EC
:100140001011111112121313141415151616171776
:10015000181819191A1A1B1B1C1D1D1E1E1F2020E2
:10016000212222232424252626272829292A2B2C2C
:100170002D2D2E2F30313232333435363738393A4F
:100180003B3C3D3E3F404142434445464748494A47
:100190004C4D4E4F50515354555658595A5B5D5E15
:1001A0005F616264656668696B6C6D6F70727375B0
:1001B00077787A7B7D7E8082838587888A8C8E8F14
:1001C00091939596989A9C9EA0A2A3A5A7A9ABAD42
:1001D000AFB1B3B5B7BABCBEC0C2C4C6C9CBCDCF30
:1001E000D1D4D6D8DBDDDFE2E4E7E9EBEEF0F3F5DE
:1001F000F8FAFDFFFFAA7F55402B0014001A0008F3
:100200000015001700E00004001600070009000AAE
:1002100000E1001D001B00060019000500000000A1
:10022000000000E20001512C002A00130012000C13
:100230000018001C00340033000F000E000D000BEE
:1002400000E5003800370036001000110000000003
:100250000000004C00025128002B001E001F00204F
:100260000021002200E00054005500560057002DE8
:1002700002E10000002E0036023702870200000073
:10028000000000E20001002C002A002700260025C3
:1002900000240023002900320030004D0052004AA3
:1002A00000E500260225024F00510050000000002A
:1002B0000000004C00035128002B001E021F0220EA
:1002C0000221022202E0003D003E003F00400041CA
:1002D00000E100420043004400450000000000002F
:1002E000000000E20003512C002A0027022602250C
:1002F00002240223022900310230022F022E002D97
:1003000000E500870030002F002E022D02000000C3
:100310000000004C00010028002B0000000000003D
:100320000025020000E00000000000000030020094
:1003300000E10000000000000030000000000000AC
:10034000000000E20001002C002A00000000000074
:100350000026020000290000000000000031020019
:1003600000E5000000000000003200000000000076
:100370000000004C00010028001E0F0500047F3F14
:100380001F643214643214783C1E1E140A050501E1
:100390000902A10185020901A10005091901290825
:1003A0001500250195087501810205010930093103
:1003B0001581257F95027508810609381581257FED
:1003C000950175088106050C0A38021581257F956F
:1003D0000175088106C0C005010980A101850319C6
:1003E000012AB700150126B700950175108100C0DC
:1003F000050C0901A101850419012AA00215012695
:10040000A002950175108100C005010906A10185B2
:1004100005050719E029E7150025019508750181F3
:10042000020507190029EF1500250195F0750181D6
:1004300002050819012905950575019102950175B7
:10044000039101C005010906A101050719E029E78B
:100450001500250195087501810295017508810136
:100460000507190029FF150026FF0095067508816C
:100470000005081901290595057501910295017579
:10048000039101C009023B00020100A0FA09040027
:1004900000010301010009211101000122400007B0
:1004A00005810308000A0904010001030000000996
:1004B000211101000122B6000705820320000A1263
:1004C0000110010000000853460100010001020074
:1004D000010C0343006F0072006E00650000001005
:1004E0000366006F006F007300740061006E00000F
:1004F00000040309042223252628292A2C2D2F3025
:1005000032333536383A3B3D3E4042434547494A0F
:100510004C4E5051535557595A5C5E606264666840
:10052000696B6D6F71737577797B7D7F818385874B
:10053000898A8C8E90929496989A9C9E9FA1A3A54E
:10054000A7A8AAACAEAFB1B3B4B6B8B9BBBCBEBF76
:10055000C1C2C3C5C6C7C9CACBCCCDCED0D1D2D2F9
:10056000D3D4D5D6D7D7D8D9D9DADADBDBDBDCDC04
:10057000DCDCDCDDDDDDDDDCDCDCDCDCDBDBDBDABC
:10058000DAD9D9D8D7D7D6D5D4D3D2D2D1D0CECD27
:10059000CCCBCAC9C7C6C5C3C2C1BFBEBCBBB9B834
:1005A000B6B4B3B1AFAEACAAA8A7A5A3A19F9E9CB9
:1005B0009A98969492908E8C8A89878583817F7D84
:1005C0007B79777573716F6D6B6968666462605E65
:1005D0005C5A5957555351504E4C4A49474543422E
:1005E000403E3D3B3A3836353332302F2D2C2A29C8
:1005F00028262523220011241FBECFEFDAE0DEBF1C
:10060000CDBF04B603FE27C080911F039091200345
:10061000A0912103B09122038730904BA740B04BAB
:10062000D1F410921F031092200310922103109214
:10063000220314BE84B7877F84BF0FB6F894A895B1
:1006400080916000886180936000109260000FBE0E
:10065000E0E0F8E3099511E0A0E0B1E0ECE3F3E5B8
:1006600002C005900D92AE39B107D9F723E0AEE98B
:10067000B1E001C01D92AF31B207E1F70E945912FB
:100680000C949C290C9400009091AF0192FF0DC036
:10069000282F2871283019F4877F846006C0282FFE
:1006A0002471243011F48B7F886093FF0DC0282FB4
:1006B0002871283119F4877E846106C0282F24719F
:1006C000243111F48B7E88612091B00120FF0DC090
:1006D000382F3871383019F4877F816006C0382F81
:1006E0003171313011F48E7F886021FF0DC0282FC9
:1006F0002871283119F4877E816106C0282F217165
:10070000213111F48E7E886194FD877E089525E065
:10071000E0EDF1E0DC0101900D922A95E1F72091E6
:10072000D5013091D6014091D701FC012583368354
:10073000478308951092D70108958091D7010895B5
:10074000309105018091D00180FF16C0E091040135
:1007500063E0E69FF0011124E05EFD4F539A8BB1F8
:10076000877F9BB198602FB7F894AF0163E0369F05
:10077000400D511D112414C0809106019091070174
:10078000891720F7E82FF0E0AF01440F551FE40F61
:10079000F51FE05EFD4F1182108212828F5FF0CF55
:1007A000E417F50789F0319168E09BB9000000C0BB
:1007B00037FF8BB9330F000000C000C000C08BB9F9
:1007C00000C06A9591F7ECCF2FBF8FE594E00197B9
:1007D000F1F700C0000008959091D00190FF16C07D
:1007E0009091060120910701921770F4E92FF0E033
:1007F000DF01AA0FBB1FEA0FFB1FE05EFD4F8183E5
:10080000608342839F5FF0CF0C94A0030895809192
:10081000D001282F269530E02115310519F481707B
:10082000826005C02B32310524F08170846580938D
:10083000D0018091D301893718F088E78093D301E4
:100840000895CF92DF92EF92FF926B017C010E949C
:100850000704B701A60188E090E0FF90EF90DF90D9
:10086000CF900C94B3288091D401882319F0815043
:100870008093D4016091D0017091D1018091D20117
:100880009091D3010C9421048091D401833018F409
:100890008F5F8093D4016091D0017091D1018091DC
:1008A000D2019091D3010C942104E0EDF1E083E0BA
:1008B000808311828FEF828388E783831482A5ED82
:1008C000B1E012968C911297836012968C9360819E
:1008D0007181828193810C942104AF92BF92CF9257
:1008E000DF92EF92FF920F931F93CF93DF93E82E47
:1008F000F62EE901493708F048E7E42FF0E0F1105F
:1009000006C0EC50FF4FE4914E2F2E2F71C00F2DDB
:1009100010E0EC50FF4F4491F42FC42ED12C26E070
:10092000E29EC00111242FEF30E0B9010E9452294C
:100930005BEA5603C001579F900D11248E0D911D47
:100940008E0D911D582F550F580FD901A01BB10BBB
:10095000AC9DC001AD9D900DBC9D900D1124E92F63
:10096000F59ED0011124AB2FBB277901EA1AFB0AAF
:10097000EC9CD001ED9CB00DFC9CB00D11245901F4
:10098000A51AB108A09E7001A19EF00CB09EF00CBB
:100990001124EF2CFF242E193F092C9D80012D9D41
:1009A000100D3C9D100D1124212F6230710591F026
:1009B00048F461157105E1F061307105B9F4242F37
:1009C0004B2F16C06430710569F040F06630710538
:1009D00079F00CC0242F492FE12F0AC0492FEF2FA7
:1009E0002B2F06C0292FE42F412F02C0292FEB2FD8
:1009F00049832883EA83DF91CF911F910F91FF9064
:100A0000EF90DF90CF90BF90AF900895AF92BF92DC
:100A1000CF92DF92EF92FF920F931F93CF93DF93CA
:100A200000D01F92CDB7DEB7182FF62E042FE22E7E
:100A30009091D00190FF7EC0E92FE695AE2FB0E0F7
:100A4000AD5CBE4F8C918093D5019E7F923061F456
:100A50009E012F5F3F4F812F0E946D044B81698162
:100A60008A810E94EC0343C0823019F40091D301C3
:100A70003EC0863019F41091D10139C08930D9F3C4
:100A80008931A9F5E9518E2F8170D82EE695F0E0D5
:100A9000EC50FE4FA590B490C12CBB24609108018E
:100AA000C61618F52C2D30E0A29EC001A39E900D15
:100AB000B29E900D112470E00E945229812FD11016
:100AC00002C0860F01C0861B90910601290F311DBF
:100AD000A901440F551F240F351F205E3D4F402FA5
:100AE0006F2D0E946D04C394D9CF0E94A003809102
:100AF000D101181308C08091D201F81204C080916E
:100B0000D301081729F08091D70182608093D70123
:100B10001093D101F092D2010093D301EE2051F055
:100B20006091D0017091D1018091D2019091D30157
:100B30000E9421040F900F900F90DF91CF911F9191
:100B40000F91FF90EF90DF90CF90BF90AF900895FE
:100B5000E0EDF1E0438121E1421B08F440E021E0B7
:100B6000628181810C940605E0EDF1E0438121E191
:100B7000420F08F44FEF21E0628181810C94060559
:100B8000E0EDF1E0628121E1621B08F460E021E028
:100B9000438181810C940605E0EDF1E0628121E161
:100BA000620F08F46FEF21E0438181810C94060508
:100BB000E0EDF1E0818121E0438162818A500C9473
:100BC0000605E0EDF1E0818121E043816281865FED
:100BD0000C940605CF93DF9300D01F92CDB7DEB7FC
:100BE0009091D00190FF0AC09E012F5F3F4F0E945D
:100BF0006D044B8169818A810E94EC030F900F90F4
:100C00000F90DF91CF9108950E94E5222091E0019D
:100C1000211104C02091E101222321F09093DD01F4
:100C20008093DC012091E201211104C02091E301B5
:100C3000222321F09093DA018093D901E091BC0145
:100C4000F091BD01309749F082E08093DE0104808D
:100C5000F581E02D8EED91E0099408958D3E39F4F3
:100C60009091E10197FF35C01092E10159C08E3E8D
:100C700029F49091E1011916BCF32BC09091E00189
:100C80008F3E29F497FF25C01092E00149C0803FB4
:100C900019F41916CCF31DC09091E201893F29F493
:100CA0001916BCF41092E2013BC08A3F19F497FF79
:100CB00010C0F8CF8B3F39F49091E30197FF09C042
:100CC0001092E3012DC08C3F21F49091E30119169D
:100CD000BCF39FE0980F983080F421E030E0A90148
:100CE00002C0440F551F9A95E2F7CA018095909172
:100CF000DF0189238093DF0113C08D3F21F48091B0
:100D000086028E7F0BC08E3F21F4809186028D7FFC
:100D100005C08F3F29F4809186028B7F80938602E5
:100D20008091E001811106C08091E101811102C032
:100D30001092DB018091E201811106C08091E301F4
:100D4000811102C01092D80108958091860280FD21
:100D500016C081FD16C082FD18C08091D80188237D
:100D600091F0883290F428E0829FC001112468E25B
:100D700070E00E946629862F672B29F007C082E069
:100D8000089584E0089581E0089588E008958091B1
:100D9000860280FD14C081FD14C082FD16C08091C2
:100DA000DB01882381F0843180F422E3829FC0013B
:100DB000112464E170E00E946629862F08958CE07A
:100DC000089589E1089585E0089582E308958D3EB0
:100DD00021F40E94C706819504C08E3E29F40E942A
:100DE000C7068093E10108958F3E21F40E94C70653
:100DF000819504C0803F29F40E94C7068093E001DA
:100E00000895893F19F40E94A50605C08A3F31F470
:100E10000E94A50681958093E20108958B3F21F4FD
:100E20000E94A506819504C08C3F29F40E94A50666
:100E30008093E30108959FE0980F983078F421E0C3
:100E400030E0A90102C0440F551F9A95E2F7CA018C
:100E50009091DF01892B8093DF0108958D3F21F46C
:100E60008091860281600BC08E3F21F480918602C2
:100E7000826005C08F3F29F4809186028460809350
:100E8000860208958091A401811118C08091D80034
:100E900080618093D8008AE18A95F1F700C0809143
:100EA000D90080FD02C082E001C081E08093A401EE
:100EB000823021F40E9459191092130281E090911E
:100EC000A401913009F080E00895F894E82FE295AC
:100ED000EF70F0E031A1282F2F7081E090E001C089
:100EE000880F2A95EAF7982F9095932391A392A1C2
:100EF000892B82A3789408958F929F92AF92BF928C
:100F0000CF92DF92EF92FF920F931F93CF93DF93D5
:100F100000D000D0CDB7DEB78EE5C82E81E0D82E48
:100F200091EBE92E91E0F92E470110E0AA24A39459
:100F3000B12CB601D6018C91F894E82FE295EF70B0
:100F4000F0E021A18F70A50102C0440F551F8A95C2
:100F5000E2F7CA01922F982B91A392A18095892341
:100F600082A3789400C0E6E6F1E020E030E000E003
:100F70004191842F82958F7090E0DC0190968C9146
:100F800090E04F7002C0959587954A95E2F780FDF5
:100F900007C08A2D022E01C0880F0A94EAF701C00B
:100FA00080E0082B2F5F3F4F2630310509F7BFEF58
:100FB000CB1ADB0AFB0180810E946507F0EAFA95F3
:100FC000F1F7D4018C91081719F00C9381E001C05E
:100FD00080E0182BBFEF8B1A9B0AE2E6CE16E1E009
:100FE000DE0609F0A6CF0091BA01112349F081E095
:100FF0008093A2010E94E5229093A1018093A00119
:101000008091A2018823B9F08091A0019091A10163
:101010000E94AD22069778F0E02FF0E0E154FE4FF9
:10102000D7018D917D018193B5EBEB16B1E0FB0605
:10103000B9F71092A2010E9442076091BA01882379
:10104000C9F119821A821B821C82862F90E0BE0190
:101050006F5F7F4F81549E4F0E941E26811112C0E8
:101060008091A3018F5F8093A301863068F1E091A6
:10107000B901F0E0E154FE4F108211821282138216
:1010800081E023C01092A301E091B901F0E0E154A6
:10109000FE4FDE0111969E012B5F3F4F80E09D9138
:1010A0004081491711F0908381E03196A217B30770
:1010B000B1F70BC070E061547E4F8091B90190E0B0
:1010C00081549E4F0E944C2680E0112311F081E054
:1010D00090E00F900F900F900F90DF91CF911F91A4
:1010E0000F91FF90EF90DF90CF90BF90AF909F90C7
:1010F0008F900895CF93DF9320E3829FC001112446
:10110000FC0146E0749FE00DF11D1124E60FF11D76
:10111000EE0FFF1FE750FE4FC591D491CE01C238AC
:10112000D10569F1B0F4C133D10509F475C048F4B3
:10113000C932D10509F469C0CA32D10509F473C0B6
:1011400085C0C533D10509F459C0C933D105B9F0FB
:101150007DC0C33ED10571F138F4C03ED105B1F078
:10116000C23ED10511F172C0C63ED105B9F1C73EEC
:10117000D105C9F1C43ED10509F068C024C0209151
:10118000AF0120FD5DC021FD5BC060C02091AF01BB
:1011900020FD50C02091B00120FF51C18091AF01CE
:1011A00084FD4BC183EE90E04AC12091AF0122FF44
:1011B00046C1F4CF8091AF0182FD3FC08091B00164
:1011C00080FD3EC0EBCF2091B00121FF38C180915E
:1011D000AF0184FD32C187EE90E031C12091AF01B3
:1011E00023FF2DC1F4CF8091AF0183FD2CC08091EE
:1011F000B00181FFECCF84EE90E021C12091AF01DE
:1012000025FF1DC189E290E01AC12091AF0125FFA1
:1012100016C185E390E013C12091AF0126FF0FC1F5
:101220008AE290E00CC12091AF0126FF08C181E362
:1012300090E005C189E390E002C182EE90E0FFC03A
:1012400080EE90E0FCC086EE90E0F9C0C11551E55B
:10125000D50708F06CC0C11520E5D207F0F0CE012B
:10126000F4E096958795FA95E1F7282F23703C2FA7
:10127000337081E090E002C0880F991F3A95E2F741
:101280009C68922B2C2F2F702695269550E2259F37
:1012900090011124822B932BD2C0C83ED10570F54A
:1012A000C03ED10508F0CBC0C83AD105B8F4C53A64
:1012B000D10550F02C2F255AC22FD0E0C459DE4F53
:1012C000888190E09064BBC0C130D10509F4B7C0FB
:1012D00008F4B3C0249708F4B0C0B1C0CF3BD10527
:1012E00008F0ABC02C2F285AC22FD0E0CC0FDD1F46
:1012F000C159DE4F888199819464A1C0C11540E233
:10130000D40760F4C11551E0D50708F098C0CD3E70
:10131000D10508F492C0CE01906591C0C11580E45A
:10132000D80708F48AC0CE019F70906A88C0C115A2
:1013300025E5D20708F040C0C11544E5D40728F0E0
:101340009C2F8827846F906A7AC0C11553E5D50712
:10135000A8F09E012370332781E090E002C0880F3F
:10136000991F2A95E2F72C2F2695269550E2259F66
:1013700090011124822B932B9A6861C0C11582E5DC
:10138000D80728F49C2F8827816F906A58C09E0147
:101390002370332781E090E002C0880F991F2A95BF
:1013A000E2F72C2F2695269540E2249F90011124E8
:1013B000822B932B9C6843C0C11529E5D207B0F45A
:1013C000C11548E5D40728F09C2F8827806F906AC4
:1013D00036C0C11556E5D50780F58C2F0E94440311
:1013E0008F7190E0982F8827906229C0C1158AE5F7
:1013F000D80790F48C2F8F700E9444039E0194E0D4
:10140000369527959A95E1F72F7030E0322F2227F5
:101410003069A901482B0FC0CE019056811590422A
:1014200060F48D2F8F710E9444039E013327306238
:101430008F71A901582BCA0102C080E090E0DF91B2
:10144000CF9108959091D00190FF3BC09170811190
:1014500002C0926006C08B3210F0946502C0880F03
:10146000982B9093D0018091D70181608093D70110
:10147000662351F06091D0017091D1018091D20129
:101480009091D3010E9421046091D001669570E093
:101490004BE050E085E191E00E948F29892B19F003
:1014A0000E94931F02C00E949A1F81E08093CD0189
:1014B00020E04091D3016091D2018091D1010C9440
:1014C000060508951F93CF93DF93EC01162F8F81AC
:1014D00080FF22C098818091D00190FF08C0816078
:1014E0008093D001888186950E94220A15C08E7F44
:1014F0008093D0010E94931F8091D70181608093D7
:10150000D7012FEF80E792E0215080409040E1F733
:1015100000C000000E94A0038F8181FF06C0212F20
:101520004B816A8189810E9406058F8182FF08C0F4
:101530008E81882319F00E949A1F02C00E94931F77
:101540008F8183FF03C081E08093CD01DF91CF9134
:101550001F9108958091D0018695815009F48AE207
:1015600061E00C94220A8091D00186958F5F8B32C6
:1015700008F081E061E00C94220A8F929F92AF9272
:10158000BF92CF92DF92EF92FF920F931F93CF9370
:10159000DF93CDB7DEB72A970FB6F894DEBF0FBE44
:1015A000CDBFFC010081D18083819481892B39F0EA
:1015B0001FEFD11206C091E00F3F19F403C091E074
:1015C00001C090E090FDCEC57F0185E0DE0116965A
:1015D00001900D928A95E1F7F70122818E819F811A
:1015E000222349F00E945924182F682F8E819F8151
:1015F0000E94D32403C00E94A624182F20E3129F28
:10160000F001112436E0D39EE00DF11D1124E00F0E
:10161000F11DEE0FFF1FE750FE4F05911491043F9F
:101620008CE5180759F190F4093DECE51E07E9F047
:101630000A3DFCE51F07A1F1083D2CE51207B1F5B5
:1016400006E221EE41EE68ED7CE514C0063F3CE584
:10165000130701F1C8F0073F9CE5190739F507E2C8
:1016600025EE46EE67EF7CE505C007E225EE45EE88
:1016700069ED7CE5C7010E94F01EA7C406E221EED9
:1016800040EE64EF7CE5F6CF07E225EE44EE65EF31
:101690007CE5F0CF06E221EE42EE66EF7CE5EACF94
:1016A00008E221E045EE6AED7CE5E4CFF7018281B6
:1016B000882309F43EC11092A5010230FCE51F0702
:1016C00008F421C106312CE5120730F0C8018B5F08
:1016D0009C45099708F017C10E9477239093B001A9
:1016E0008093AF0100313CE5130709F4C3C008F053
:1016F00041C008309CE5190709F49AC0F0F40430A1
:10170000FCE51F0709F487C068F402303CE51307C5
:1017100009F477C003301C4509F0E5C08091AF01A2
:10172000826076C006309CE5190709F46EC008F0A7
:101730007BC08091AF0188606BC00C30FCE51F0757
:1017400009F485C068F40A303CE5130709F474C055
:1017500008F079C00E94AA218091AF01806858C02A
:101760000E309CE5190709F476C008F07FC080911F
:10177000AF018BC00C3FFCE51F0709F44FC018F503
:1017800003313CE5130709F47DC078F401319CE591
:10179000190709F473C002311C4509F0A4C00E9466
:1017A000AA218091AF018F7733C00531FCE51F0777
:1017B00009F472C008F486C00B3F1C4509F093C0C1
:1017C0008091B0013EC001158DE5180709F45FC096
:1017D00058F40E3FECE51E0709F444C008F43FC07E
:1017E0008091B00182602DC002302DE5120709F40E
:1017F00075C008F45DC003301D4509F074C060E099
:101800006EC08091AF01816003C08091AF018061A3
:101810008093AF0168C08091AF0111C08091B00189
:1018200082608093B0015FC08091AF018062F0CF91
:101830008091AF018064ECCF8091AF0188608460BB
:10184000E7CF8160EECF8091AF018E7FE1CF8091B5
:10185000AF018D7FDDCF8091AF01877FD9CF8091A0
:10186000B00118C08091B0018D7FDBCF8091AF01B6
:101870008F7ECECF8091AF018F7DCACF8091AF0197
:101880008F7BC6CF8091AF01877F8B7FC1CF809147
:10189000B0018D7F8E7FC5CF8091AF0182FB222763
:1018A00020F991E0922790FB82F990FB83F9B0CF69
:1018B0008091B001982F909591708E7F892B90FB2D
:1018C00081F9AFCF0E94AA218091AF0187FB222727
:1018D00020F991E0922790FB87F99ACF61E08EE0A2
:1018E00090E00E94A1286091AF011091B00184E0C6
:1018F00090E00E94A128612F82E290E00E94A1283E
:101900000E94AA2162C306312CE5120721F58091BD
:1019100000038A7A91E009F490E09093A60188236D
:1019200011F065E301C069E287E892E00E9442237A
:101930000FC00631FCE51F0709F040C08091A601E9
:10194000882309F461C365E387E892E00E941A23C3
:101950000E94F9233AC30B35FDE51F0749F158F4FE
:1019600001153CE51307B1F00F3D1C4509F042C0DD
:101970000E9488232AC30C359DE51907D9F00D353F
:101980001D45C1F58091B00182FB882780F991E067
:10199000892711C00E94AA21FFEF04E31CE0F15047
:1019A00000401040E1F700C000000E9448120DC343
:1019B00081E001C080E00E943F241CC080910003B0
:1019C00082720D3C9CE5190709F4ABC308F04EC3C5
:1019D000073CFCE51F0709F490C308F025C3043C4D
:1019E0003CE5130709F47FC308F010C3033C1C4512
:1019F00009F4C8C2F701828100811181882349F06E
:101A0000C8010E945924D82E682FC8010E94D324EF
:101A100004C0C8010E94A624D82EB8018D2D0E94B2
:101A20007A088C01982EF701D280A580A2942FE02D
:101A3000A2228091FD02877099F0DD2089F0812F2C
:101A4000807F803421F080E2800F883048F082E08F
:101A50000E942E258091FD028770CC24C3948111B1
:101A6000C12CB12EB2949FE0B9228B2D90E08C3026
:101A7000910508F04AC2FC01EA5AFF4F0C947A29FA
:101A8000812F807F1F70882311F01295107FDD2039
:101A9000B9F0112309F424C280E2800F883010F0DD
:101AA000911006C080910003182B1093000305C00D
:101AB0008091FF02182B1093FF020E94F92310C29D
:101AC000802F0E94D421112309F41FC2005E1095BB
:101AD000083010F0911006C0809100031823109375
:101AE000000305C08091FF0218231093FF020E949B
:101AF000F9230BC2812F807F1F70803211F0129565
:101B0000107F992021F0F1E09F1611F130C0DD2007
:101B1000B1F0AA2081F001E0A0120DC08091B001C7
:101B200082FDF3C180910103182B181709F4EDC150
:101B300010930103EAC180910103812B10C0AA20F8
:101B400021F021E0A21609F4E0C10E94F32327C08E
:101B5000DD2041F035E03A1508F4D7C1812F0E940D
:101B6000CA21D3C184E08A1508F4CFC118C0DD2092
:101B700049F0AA2099F3F701858180FFB1C18F70E8
:101B80008583ECCFAA2059F0093309F0BBC1FFEFE0
:101B900017EE23E0F15010402040E1F7B1C1812F52
:101BA0000E94BF21B2C1812F86958695837019F05E
:101BB000813059F0AAC1DD2019F0C801937002C02C
:101BC00080E090E00E94CE1EA6C1DD2019F0C80181
:101BD000937002C080E090E00E94B81E9CC1802FEC
:101BE000DD2019F00E94E70602C00E942E060E9426
:101BF000040691C1812F837009F069C0D11089C199
:101C0000902F929596959770990F990F802F8F70BE
:101C1000882E912CA12CB12C092E04C0880C991C63
:101C2000AA1CBB1C0A94D2F704FF12C04FE050E07C
:101C300060E070E004C0440F551F661F771F9A953F
:101C4000D2F7DB01CA0180959095A095B09503C0AD
:101C500080E090E0DC0116951695412F43704230EC
:101C600019F1C8F4009102031091030320910403B9
:101C700030910503413059F088299929AA29BB29B7
:101C8000BC01CD0160237123822393230AC0802AE3
:101C9000912AA22AB32ABC01CD01682979298A296F
:101CA0009B290E946C2535C188299929AA29BB291D
:101CB0000091020310910303209104033091050366
:101CC000BC01CD016027712782279327EACFDD2051
:101CD00019F0812F817001C08695882309F419C1FC
:101CE000902F929596959770990F990F802F8F70DE
:101CF000882E912CA12CB12C092E04C0880C991C83
:101D0000AA1CBB1C0A94D2F704FF12C04FE050E09B
:101D100060E070E004C0440F551F661F771F9A955E
:101D2000D2F7DB01CA0180959095A095B09503C0CC
:101D300080E090E0DC0116951695412F437042300B
:101D4000D9F068F50091AB011091AC012091AD0183
:101D50003091AE01413059F088299929AA29BB292F
:101D6000BC01CD0160237123822393231EC0802AEE
:101D7000912AA22AB32A13C088299929AA29BB2902
:101D80000091AB011091AC012091AD013091AE01F9
:101D9000BC01CD01602771278227932706C0BC01B3
:101DA000CD01682979298A299B290E94FF24B1C085
:101DB0001F70DD2039F0812F0E944B25802F0E945B
:101DC000CA21A7C0802F0E94BF21812F0E94092510
:101DD000A0C0802F32EF931609F440C0391538F0B7
:101DE00090EF991661F0E1EF9E1699F174C0F3EF50
:101DF0009F16D9F124EF921609F44EC06CC0DD2075
:101E000019F134E03A1508F480C01F7181E090E0C8
:101E1000A0E0B0E0AC01BD0104C0440F551F661F37
:101E2000771F1A95D2F78091AB019091AC01A091E8
:101E3000AD01B091AE018A019B01082719272A271D
:101E40003B27C901B80125C025E02A1508F45DC06B
:101E5000DCCFDD2029F0812F8F7130C0DD20D9F358
:101E6000812F8F710E94092550C0DD2079F01F71EC
:101E700081E090E0A0E0B0E0BC01CD0104C0660FBD
:101E8000771F881F991F1A95D2F703C060E070E092
:101E9000CB010E94FF2439C0DD2099F01F71812FF2
:101EA0000E944B258091B00182FD07C038E0139F4E
:101EB000C001112483608093FD02812F0E944B2575
:101EC00024C081E00E942E2581E08A15F0F482E092
:101ED0000E942E251AC0DD2039F0AA2009F4BBCFBC
:101EE000802F0E940D2211C0AA2009F4B9CF893396
:101EF00049F49FEFE7EEF3E09150E040F040E1F766
:101F000000C00000802F0E94D42188EF8B0D843008
:101F100010F40E94E41ECC20A9F08091FD0280FD07
:101F200011C0F70112828595859585950E944B25F4
:101F3000C7010E94BD0A8091FD0285958595859512
:101F40000E94092585E0F701DE01119601900D92AE
:101F50008A95E1F789819A810E94A6249A8100E3FB
:101F6000809FF001112416E0919FE00DF11D1124D6
:101F70008981E80FF11DEE0FFF1FE750FE4F85919D
:101F80009491F0C08091D00180FFA7C08E7F809394
:101F9000D0016091D0017091D1018091D2019091D6
:101FA000D3010E9421040E94931F8091D701816078
:101FB0008093D7018FEF90E7E2E081509040E040BE
:101FC000E1F700C000000E94A0038091FD0287702D
:101FD00009F4C8C0F7018281882309F4C3C082E0F4
:101FE0002A960FB6F894DEBF0FBECDBFDF91CF911A
:101FF0001F910F91FF90EF90DF90CF90BF90AF9027
:102000009F908F900C942E2569E29ECC053CFCE5B8
:102010001F0709F46DC0063C1C4509F0EBCC48EDE8
:1020200055E061EE75E081C00A3C3CE5130709F418
:102030006EC070F4083CECE51E0709F463C0093C6F
:102040001C4509F0D7CC4CEC55E060EC75E06DC058
:102050000B3C2CE5120709F45FC00C3C1C4509F051
:10206000C9CC43E354E064E474E05FC0023D8CE516
:10207000180709F466C098F40F3CECE51E0709F454
:102080005AC008F455C0003D2CE5120709F456C0AB
:10209000013D1C4509F0AECC6EE089E060C0053D15
:1020A0008CE5180709F453C060F4033DECE51E0706
:1020B00009F44AC0043D1C4509F09CCC61E088E16C
:1020C0004BC0063D2CE5120709F444C00E351D45F2
:1020D00009F090CC6AE285E242C081608093D00131
:1020E00061E0869539C04AEA5AE063EB7AE01DC0A8
:1020F00043EB5AE06AEA7AE018C041EE55E068ED39
:1021000075E013C040EC55E06CEC75E00EC048EA99
:1021100055E064EB75E009C044EB55E068EA75E012
:1021200004C044E454E063E374E00E948D1F4DCF8B
:1021300061E081E011C065E082E011C068E086E006
:102140000EC064E18FE00BC067E185E108C062E288
:1021500089E105C061E083E20E94220A36CF0E9435
:102160007B1F33CF2A960FB6F894DEBF0FBECDBFCC
:10217000DF91CF911F910F91FF90EF90DF90CF9063
:10218000BF90AF909F908F9008958091F001089537
:10219000CF93DF9300D01F92CDB7DEB7909113029B
:1021A000943019F589837B836A8382E08093E90008
:1021B0008FEF9091E800815095FD06C095ED9A95BE
:1021C000F1F700008111F5CF8091E80085FF0DC087
:1021D00040E050E063E070E0CE0101960E942016DE
:1021E0008091E8008E778093E8000F900F900F9019
:1021F000DF91CF910895BC0184E00C94C810BC011C
:1022000083E00C94C81022E02093E9002FEF309176
:10221000E800215035FD06C035ED3A95F1F7000094
:102220002111F5CF2091E80025FF0BC040E050E0E0
:1022300066E070E00E9420168091E8008E7780931F
:10224000E8000895CF93DF9320911401222339F001
:102250002091AF0127FF03C060E222E002C068E0E6
:1022600021E02093E9002FEF3091E800215035FD67
:1022700006C035ED3A95F1F700002111F5CF209118
:10228000E80025FF1DC0EC0180911401811105C0FB
:1022900040E050E068E070E003C070E040E050E0F3
:1022A000CE010E9420168091E8008E778093E8008E
:1022B00080E2FE01A1EFB1E001900D928A95E1F775
:1022C000DF91CF9108952091E4003091E50095E6EB
:1022D0004091EC00842F817040FF23C08091E80082
:1022E00080FD1DC080911302882399F0853099F0FC
:1022F0008091EB0085FD11C04091E4005091E50014
:102300002417350729F3915011F09A01E1CF84E0A9
:10231000089582E0089583E0089581E0089580E0C3
:1023200008954091E80042FFDDCF089580911502A5
:1023300087FF11C08091E80082FD05C080911302E3
:102340008111F8CF11C08091E8008B770BC080918C
:102350001302882349F08091E80080FFF8CF809134
:10236000E8008E778093E8000895982F973068F5FD
:102370009093E900981739F07091EC002091ED00EE
:102380005091F00003C0242F762F50E021FD02C0B1
:102390009F5FECCF3091EB003E7F3093EB003091AC
:1023A000ED003D7F3093ED003091EB0031603093D4
:1023B000EB007093EC002093ED005093F00020911F
:1023C000EE0027FDE5CF80E008958F708093E9004F
:1023D00081E0089520911B0230911C0226173707D7
:1023E00048F06115710539F42091E8002E772093AB
:1023F000E80001C0B901FC0120E06115710579F127
:10240000809113028823F1F18530F1F18091E80089
:1024100083FD3CC08091E80082FD2EC08091E800E1
:1024200080FFEBCF2091F3008091F20090E0922B9F
:102430006115710551F08830910538F42191209390
:10244000F100615071090196F3CF21E0089709F07E
:1024500020E08091E8008E778093E800CECF2111B4
:10246000CFCF0AC080911302882361F0853061F0DC
:102470008091E80083FD0AC08091E80082FFF2CFDE
:1024800080E0089582E0089583E0089581E0089552
:1024900087E797E790930108809300089AE088E126
:1024A0000FB6F894A895809360000FBE90936000DB
:1024B000FFCFCF93DF93CDB7DEB760970FB6F89419
:1024C000DEBF0FBECDBF84B7877F84BF0FB6F89441
:1024D000A8958091600088618093600010926000F0
:1024E0000FBE90E080E80FB6F8948093610090935F
:1024F00061000FBE85B7806885BF85B7806885BFDE
:1025000085E892E290939F0180939E010E94591961
:102510000E9478198091E20084608093E2007894B0
:10252000809113028823A1F01091E9001F7090910F
:10253000EC00892F817090FD80E8182B1092E90043
:102540008091E80083FD0E944C161F701093E900F3
:1025500082E084BD93E095BD9AEF97BD80936E00B5
:102560001092A7011092A8011092A9011092AA013D
:102570000E9442078093090180910901882321F07C
:102580001092040186E003C086E0809304018093EA
:1025900005010E94420781110E94F52580910901E1
:1025A00080910901811102C094E001C090E09093F4
:1025B000BA0184E0891B8093B90184E90E94650710
:1025C00086E60E94650787E90E94650786EC0E94FF
:1025D000650706E611E0F80181918F010E94650709
:1025E000F1E00C361F07B9F7E1EBF1E0AFEBB1E03A
:1025F00011921D9221E0E93BF207D1F780E090E0D3
:102600000E949B288A3E9E4F11F00E94882382E000
:1026100090E00E948D288093E5010E94772390939B
:10262000B0018093AF010E947C078FE39CE9019782
:10263000F1F700C000000E947C070E944207811150
:1026400002C0E4E001C0E0E0F0E0E154FE4F808130
:1026500081FF08C06FEF7FEF80E090E00E94BF280D
:102660000E94481283E090E00E948D28682F70E05D
:1026700080E090E00E946C250E944207811102C018
:102680000E94FB258091BB0181113BC080E090E05E
:102690000E949B288A3E9E4F21F00E9488230E9420
:1026A000550488E090E00E9495286093D0017093D3
:1026B000D1018093D2019093D3018091D70183609F
:1026C0008093D7016E7F71F40E94550488E090E0FA
:1026D0000E9495286093D0017093D1018093D2011C
:1026E0009093D3010E9407040E94931F8091D00110
:1026F00080FF04C060E086950E94220A81E08093FA
:10270000BB018AE091E09093BD018093BC01A8E1F8
:10271000EA2EF12CB0E4BB2E17ECC12E11E0D12E25
:1027200080911302853009F03FC000E112E18091F1
:102730001302853009F034C080911302843009F10E
:102740001092BE010FB6F894A895E09260000FBEFB
:10275000B092600083B7817F846083BF83B781605C
:1027600083BF7894889583B78E7F83BF0FB6F89424
:10277000A89580916000886180936000109260004D
:102780000FBE80911202882391F20E947C07EFEB2A
:10279000F1E08191811119C2CE16DF06D1F7C7CFC2
:1027A0000E94AA210E94E41E0E947C0781110E94BF
:1027B000BC22E6EEF1E0AFEBB1E000E010E0602E0D
:1027C0007D908191872549F1812C99249394982FAC
:1027D0009921F1F00E944207882399F08F82688640
:1027E000792081E009F480E089870E94E5228160F8
:1027F000782F9B878A874F81588569858B850E94B2
:102800001A1EF801EA51FE4F8081982690821AC064
:102810008394990C26E08212DACF0F5F1F4F0830A5
:10282000110569F68FEF8C878D871E860E94E52241
:102830008160782F988B8F874C855D856E85888920
:102840000E941A1E8091D601882309F4CFC080917E
:10285000D501E091D001E695E81BE093CC018230F0
:1028600059F4F0E0E657FC4FE4910E2F10E0F6E04B
:102870006F2EFEE17F2E6BC0863059F4F0E0E957F1
:10288000FC4FE4910E2F10E0E6EF6E2EEDE17E2E70
:102890005EC0893061F4E695F0E0EC57FC4FE491BE
:1028A0000E2F10E074EA672E7CE1772E50C08F3037
:1028B00061F4E695F0E0EF57FC4FE4910E2F10E045
:1028C00067E0662E6CE1762E42C0853159F4F0E067
:1028D000E258FC4FE4910E2F10E051E8652E5BE1C9
:1028E000752E35C08831F9F0833249F4ECE7F3E016
:1028F0000591149146EB642E4DE1742E28C084326C
:10290000C9F08532F1F48E2F63E00E943829E92F57
:10291000F0E0E758FC4FE4910E2F10E03FED632EFE
:102920003CE1732E14C008E210E02EEE622E2AE184
:10293000722E0DC004EF11E09FEA692E9AE1792E04
:1029400006C000ED17E08EEA682E8AE1782E8091AD
:10295000CD01882361F01092CD010E94EC25909367
:10296000CB018093CA011092CF011092CE010E9438
:10297000EC25E091CA01F091CB019C012E1B3F0B8D
:102980002F3F3F4798F52091C9012223B1F01092C3
:10299000C9012091C7013091C801821B930B8F3F61
:1029A0009F4758F4205D3A483093C8012093C701EF
:1029B0008091D70188608093D7018090CE0190905C
:1029C000CF010E0F1F1F1093CB010093CA018AEC99
:1029D00091E0F30109958091CE019091CF01892B6F
:1029E00029F4892819F081E08093C90186E0EEED91
:1029F000F1E0DE01119601900D928A95E1F7809049
:102A0000E0019090E1010091E2011091E301109248
:102A1000E0011092E1011092E2011092E3018110B5
:102A200003C0992009F451C08091DC019091DD012F
:102A30000E94AD229C019091DB01992309F4DBC037
:102A40002333310508F441C09F3F19F09F5F9093F5
:102A5000DB01882061F00E94C706181414F09FEF74
:102A600001C091E0899F802D11248093E00199207D
:102A700061F00E94C706191414F09FEF01C091E0A5
:102A8000899F802D11248093E1013091E00133234F
:102A9000E1F02091E1012223C1F045EB3403C001B4
:102AA0001124992319F09093E00103C081E08093F1
:102AB000E00135EB2303C0011124992319F0909311
:102AC000E10103C081E08093E101011103C0112302
:102AD00009F451C08091D9019091DA010E94AD2290
:102AE0009C019091D801992309F48AC025363105BB
:102AF00008F441C09F3F19F09F5F9093D8010023D5
:102B000061F00E94A506101614F09FEF01C091E03D
:102B1000899F802D11248093E201112361F00E948E
:102B2000A506111614F09FEF01C091E0899F802D3A
:102B300011248093E3013091E2013323E1F02091ED
:102B4000E3012223C1F045EB3403C0011124992392
:102B500019F09093E20103C081E08093E20135EB2C
:102B60002303C0011124992319F09093E30103C0BA
:102B700081E08093E3018091E00181110BC080919D
:102B8000E101811107C08091E201811103C08091B0
:102B9000E30181110E9404068B829C820D831E83B7
:102BA00086E0FE013196AEEDB1E001900D928A957E
:102BB000E1F70E94E41E9091E401891709F4B0CD79
:102BC0000E94E41E8093E401ABCD09BD19BD09B498
:102BD00000FEFDCF8091D8008F7D8093D80080913A
:102BE000E00082608093E0008091E00081FDFCCFF6
:102BF0000E94AA219CCD2D32314008F027CF65CF0D
:102C00002D32314008F078CFB6CF0F931F930E943A
:102C10004207882321F01F910F910C94BC220E943F
:102C2000BC220091A7011091A8012091A901309127
:102C3000AA01600F711F821F931F1F910F910895AA
:102C4000EF92FF920F931F93CF93DF937C018B0141
:102C50000E946311811119C0E70101151105A1F04E
:102C60008091E80085FD0AC08091E8008E7780930E
:102C7000E8000E946311882381F307C08991809343
:102C8000F10001501109E9CF80E0DF91CF911F9150
:102C90000F91FF90EF9008951F93CF93DF93CDB7DF
:102CA000DEB7AA970FB6F894DEBF0FBECDBFE5E141
:102CB000F2E08091F100819322E0ED31F207C9F753
:102CC00080911602833009F460C030F4813071F0D5
:102CD000823009F49AC0B1C08A3009F486C08B30C2
:102CE00009F46BC0893009F0A8C020C0809115029A
:102CF000813A09F0A2C08091E800877F8093E800C4
:102D00008091190290911A02892B21F460E281EFDF
:102D100091E003C060E080E090E070E00E94EA1182
:102D20008091E8008B778093E80087C0809115023E
:102D3000813209F082C08091190290911A020297A3
:102D400008F07BC08091E800877F8093E800809145
:102D5000E80082FD05C0809113028111F8CF6DC09B
:102D60002091F3008091F20090E0922B029729F4D9
:102D70008091F1008B7F813021F48091F10080936C
:102D8000F0018091E8008B7754C080911502813A60
:102D900009F053C08091190290911A02892B09F011
:102DA0004CC08091E800877F8093E8008091E80024
:102DB00080FFFCCF8091140137C0809115028132D1
:102DC000E1F58091190290911A02892BB1F5809159
:102DD000E800877F8093E8000E9496118091170297
:102DE000809314010E94AA2128C08091150281328B
:102DF00021F58091E800877F8093E8000E9496117A
:102E0000809118028093EF0118C080911502813AD9
:102E1000A1F48091E800877F8093E8008091E8002A
:102E200080FFFCCF8091EF018093F1008091E8005A
:102E30008E778093E8000E9496118091E80083FFCE
:102E4000CCC18091150290911602492F50E04A3072
:102E5000510508F0C2C1FA01EE59FF4F0C947A29CE
:102E6000803821F0823809F0B8C108C08091110281
:102E700090911202992389F082600FC0809119020B
:102E80008F70873008F0A9C18093E9008091EB0032
:102E900085FB882780F91092E9009091E800977FE0
:102EA0009093E8008093F1001092F10065C1282F03
:102EB0002D7F09F092C1882319F0823061F08DC115
:102EC00080911702813009F088C1933009F080E0C9
:102ED000809312022EC08091170281112AC0809126
:102EE00019028F702FEF280F263008F076C18093DB
:102EF000E9002091EB0020FF1CC0933021F4809169
:102F0000EB00806214C09091EB0090619093EB0015
:102F100021E030E0A90102C0440F551F8A95E2F775
:102F20004093EA001092EA008091EB008860809361
:102F3000EB001092E9008091E800877F20C18111A9
:102F40004CC1109117021F778091E3008078812B8C
:102F50008093E3008091E800877F8093E8000E94DF
:102F600096118091E80080FFFCCF8091E30080689B
:102F70008093E300111102C082E001C083E08093DE
:102F800013022BC18058823008F027C180911702AC
:102F9000909118028C3D53E0950779F583E08A8380
:102FA0008AE289834FB7F894DE01139620E03EE071
:102FB00051E2E32FF0E050935700E49120FF03C06B
:102FC000E295EF703F5FEF708E2F90E0EA3010F0E7
:102FD000C79601C0C0968D939D932F5F243149F70A
:102FE0004FBF8091E800877F8093E8006AE270E03D
:102FF000CE0101960E94EA11AEC040911902509193
:103000001A02292F332723303105A9F068F4213023
:10301000310509F4F1C02230310509F0DEC08BE33F
:1030200090E0E4E8F4E044C02132310521F122329D
:10303000310571F1D2C0992781309105A1F058F086
:10304000029709F0CAC0E1EDF4E0E4918E2F90E020
:10305000E1EDF4E02AC0E1EFF4E0E4918E2F90E09E
:10306000E1EFF4E022C0EFEDF4E0E4918E2F90E088
:10307000EFEDF4E01AC04115510509F4C2C041302A
:10308000510509F0AAC089E090E0EFEAF4E010C031
:103090004115510509F4BAC04130510509F09DC0F0
:1030A00086EB90E0EEE8F3E003C0009709F495C0EA
:1030B0002091E800277F2093E80020911B023091A7
:1030C0001C028217930708F49C0140E0211531058A
:1030D00089F180911302882309F43DC08530D9F12C
:1030E0008091E80083FD37C08091E80082FD2FC009
:1030F0008091E80080FFEACF4091F3008091F200D8
:1031000090E0942B2115310559F08830910540F459
:1031100044914093F1003196215031090196F2CF4C
:1031200041E0089709F040E08091E8008E778093B5
:10313000E800CCCF4111CDCF0AC080911302882383
:1031400051F0853041F08091E80083FD04C080910A
:10315000E80082FFF2CF8091E8008B778093E8004F
:103160003CC08038D1F58091E800877F8093E800EB
:10317000809114028093F1008091E8008E77809313
:10318000E8000E94961129C0811127C08091170282
:10319000909118029927029704F58091E800877FA3
:1031A0008093E80010911702109314020E94961168
:1031B000111106C08091E30087FD02C081E001C0CB
:1031C00084E08093130242E061EC81E00E94B5113B
:1031D00042E261EC82E00E94B5118091E80083FF39
:1031E0001AC08091E800877F8093E8008091EB000F
:1031F00080628093EB000FC082E190E0EFEBF4E09F
:1032000057CF89E090E0E6E9F4E052CF80E490E027
:10321000E4E4F4E04DCFAA960FB6F894DEBF0FBEFB
:10322000CDBFDF91CF911F9108951F920F920FB6DE
:103230000F9211242F933F934F935F936F937F933C
:103240008F939F93AF93BF93CF93DF93EF93FF93AE
:10325000C091E900CF708091EC00D82FD17080FD33
:10326000D0E81092E9008091F000877F8093F00011
:1032700078940E944C161092E9008091F0008860CA
:103280008093F000CD2BCF70C093E900FF91EF91B8
:10329000DF91CF91BF91AF919F918F917F916F916E
:1032A0005F914F913F912F910F900FBE0F901F9004
:1032B0001895E8EDF0E080818E7F80831092E20027
:1032C0001092DA001092E100A0EEB0E08C918160E3
:1032D0008C9380818F77808319BCA7EDB0E08C91AF
:1032E0008E7F8C9380818F7E80831092EE01089573
:1032F000CF92DF92EF92FF920F931F93CF93DF93C2
:10330000C8EDD0E088818F7E8883E7EDF0E0808192
:103310008160808384E082BF81E08093EE018881B8
:103320008E7F888302EE10E0F80110821092DA009E
:1033300081EEC82ED12CF601108288818F77888388
:1033400088818068888388818F7D888319BC1092EA
:10335000130210921402109212021092110290EEB7
:10336000E92EF12CF70180818B7F80838881816039
:10337000888342E060E080E00E94B511F601808120
:103380008E7F8083F8018081816080838081886066
:103390008083F70180818E7F80838881806188832C
:1033A000DF91CF911F910F91FF90EF90DF90CF9021
:1033B00008951F920F920FB60F9211242F933F93EF
:1033C0004F935F936F937F938F939F93AF93BF932D
:1033D000EF93FF938091E10082FF09C08091E200AA
:1033E00082FF05C08091E1008B7F8093E100809196
:1033F000DA0080FF2AC08091D80080FF26C080912B
:10340000DA008E7F8093DA008091D90080FF18C0A7
:1034100080E189BD82E189BD09B400FEFDCF81E074
:10342000809313028091EE0181110FC00E945919FF
:103430000E9478198091E20084608093E20005C0C8
:1034400019BC109213021092EE018091E10080FFEE
:1034500017C08091E20080FF13C08091E2008E7F50
:103460008093E2008091E20080618093E20080918D
:10347000D80080628093D80019BC85E08093130245
:103480008091E10084FF2EC08091E20084FF2AC079
:1034900080E189BD82E189BD09B400FEFDCF809144
:1034A000D8008F7D8093D8008091E1008F7E80933B
:1034B000E1008091E2008F7E8093E2008091E20043
:1034C00081608093E20080911402882311F084E0EF
:1034D00007C08091E30087FD02C081E001C083E066
:1034E000809313028091E10083FF27C08091E20066
:1034F00083FF23C08091E100877F8093E10082E019
:1035000080931302109214028091E1008E7F8093C9
:10351000E1008091E2008E7F8093E2008091E200E2
:1035200080618093E20042E060E080E00E94B5119B
:103530008091F00088608093F000FF91EF91BF913F
:10354000AF919F918F917F916F915F914F913F913B
:103550002F910F900FBE0F901F90189508950F9305
:103560001F93CF93DF93EC0100E010E080910801FE
:10357000282F30E00217130724F5909106019801D7
:10358000290F311DA901440F551F240F351F205E3F
:103590003D4F869590E04C81081719071CF4442391
:1035A00031F002C0411103C04091D30101C040E09D
:1035B0006091D2018091D1010E946D040F5F1F4F75
:1035C000D5CF0E94A0038C8190E00196817099274D
:1035D0008C83DF91CF911F910F9108958F929F92CD
:1035E000AF92BF92CF92DF92EF92FF920F931F9311
:1035F000CF93DF938C01FC014481C42FD0E09E0166
:10360000DE010E9429299B01AC010E94F4286B0174
:103610007C01E0E2F0E0EC1BFD0BA5E5B0E09B01D6
:10362000AC010E94F4284B015C019F01DF010E9464
:1036300080299B01AC010E94FF289B01AC012C0D4D
:103640003D1D4E1D5F1DC501B4010E940729C22FFB
:10365000D22F2A3228F4F3E02F9F900111240DC0BD
:1036600025E530E02C1B3109C901880F991F280F6F
:10367000391F37FF02C02F5F3F4F35952795C22F67
:10368000C095F12C85E5E82EED1A80910801F81619
:10369000C8F4F1FC02C08E2D01C08D2F909106015F
:1036A0002F2D30E0290F311DA901440F551F240F84
:1036B000351F205E3D4F4C2F6091D2010E946D045A
:1036C000F394E3CF0E94A003F8018481811102C02A
:1036D00091E003C0803219F49FEF90932201909102
:1036E0002201890FF8018483DF91CF911F910F91FF
:1036F000FF90EF90DF90CF90BF90AF909F908F9012
:1037000008951F93CF93DF93EC018C81811109C041
:1037100081E08C8310921E0292E0909321018093AD
:1037200020018091060190910701891770F4E82F1C
:10373000F0E09F01220F331FE20FF31FE05EFD4F09
:103740001182108212828F5FF0CF10E06091080129
:103750001617C0F5E12FF0E070E0CF010E94662956
:1037600020910601820F20911E02022E000C330BC5
:1037700090E0E217F307CCF020912101022E000C1B
:10378000330B2E173F078CF09C01220F331F820F43
:10379000931F9C01205E3D4F4091D3016091D20167
:1037A0008091D1010E946D040BC0FC01EE0FFF1F40
:1037B0008E0F9F1FFC01E05EFD4F1182108212826E
:1037C0001F5FC4CF0E94A0038091200120911E02A0
:1037D000280F20931E0290912101980F90932101B0
:1037E00019165CF4022E000C330B4091080150E0D6
:1037F000415051092417350734F0819580932001F9
:10380000813009F41C82DF91CF911F9108958F922E
:103810009F92AF92BF92CF92DF92EF92FF920F935F
:103820001F93CF93DF93EC018A8180FF03C0BB24F9
:10383000BA9402C0BB24B3948C8181110DC081E085
:10384000B81206C080910801815080931D0202C009
:1038500010921D0281E08C83A12C4CE0942E80916B
:103860000801A81608F044C080910601CA2CD12C8A
:103870008601080F111DC801880F991F080F191F15
:10388000005E1D4FF80111821082128234E0E32E97
:10389000F12C812C80911D02880D8D302CF0692D2A
:1038A0000E944429892F05C087FF03C09091080119
:1038B000890F082E000C990BC816D90691F4809137
:1038C000D3018E9DA0018F9D500D112455954795D4
:1038D0005595479598016091D2018091D1010E9440
:1038E0006D048B0CF1E0EF1AF108A1F6A394B7CFA9
:1038F0000E94A00380911D0291E0B9120EC08111B7
:1039000007C080910801815080931D021C820FC066
:10391000815080931D02BC820AC090E001966091A4
:10392000080170E00E94662980931D028C83DF915C
:10393000CF911F910F91FF90EF90DF90CF90BF90AC
:10394000AF909F908F900895FF920F931F93CF9306
:10395000DF93EC01F12C0FEF10E060910801F616F7
:10396000F0F4809106012F2D30E0280F311DC901A0
:10397000880F991F280F391F205E3D4F70E0C80146
:103980000E946629962F8C814091D3016091D201CB
:10399000F99E800D11240E946D04F394DECF0E94E5
:1039A000A0039A818C8190FF02C08F5F01C081507B
:1039B0008C83DF91CF911F910F91FF9008957F929B
:1039C0008F929F92AF92BF92CF92DF92EF92FF922F
:1039D0000F931F93CF93DF93FC018280748081E06B
:1039E0008483E5EFF4E09490E4E7F5E0E491A12C22
:1039F000F5E0BF2ECC24CA94D12CE9190E2F10E08B
:103A000080910801A81608F0A2C0EA2CF12C22E04F
:103A1000281568F0BE9CF001BF9CF00D1124EC5BF2
:103A2000FD4F8091D10180838091D20181837110FB
:103A30000AC0BE9CF001BF9CF00D1124EC5BFD4F51
:103A4000138212826AC0BE9CE001BF9CD00D11247B
:103A5000CC5BDD4F8B818823F9F081508B832FEF76
:103A6000829FC00111246C8170E00E945229FB01E9
:103A7000FF27EB50FB4F8491E82FE9192FEFE29FCE
:103A8000C0011124B8010E9452298091D301689F7E
:103A9000B00111247A8341C00E947D282091D30176
:103AA0002695215830E0A901440F551F322F2227B7
:103AB000240F351F232F33278217930774F582E0D5
:103AC000881588F40E947D28B6010E9466298883A3
:103AD0000E947D282091D2012695622F70E00E94DD
:103AE0006629280F2983BE9CF001BF9CF00D11248C
:103AF000EC5BFD4F12828091D301843120F0893C30
:103B000018F088EC01C084E1BE9CF001BF9CF00D70
:103B10001124EC5BFD4F8483838380910601970120
:103B2000280F311DC901880F991F280F391F205EEA
:103B30003D4FBE9CF001BF9CF00D1124EC5BFD4F8E
:103B40004281618180810E946D04A39459CFDF91ED
:103B5000CF911F910F91FF90EF90DF90CF90BF908A
:103B6000AF909F908F907F900C94A0030F931F9322
:103B7000CF93DF9300D01F92CDB7DEB78C01809139
:103B80001F0281110AC09E012F5F3F4F48E76FEF70
:103B90000E946D048A8180931F02F8018481813024
:103BA00051F028F0823061F440911F020AC08091E8
:103BB0001F0240E007C060911F0240E080E003C0A8
:103BC00040E080E060E00E94EC03F801848190E036
:103BD000019663E070E00E94662984830F900F9045
:103BE0000F90DF91CF911F910F910895CF93DF93A5
:103BF000EC01E0EDF1E0438162818C810E94EA05F5
:103C00008C818F5F8C83DF91CF910895CF93DF9369
:103C1000EC01EC81F0E0EB50FB4F4491E0EDF1E082
:103C2000628181810E94EA058C818F5F8C83DF91A4
:103C3000CF9108951F93CF93DF93CDB7DEB76797EA
:103C40000FB6F894DEBF0FBECDBF342F4B8B252FA0
:103C50005C8B6D8B7E8B8F8B4E895F89611110928F
:103C6000FF0286E0FE013D96DF01982F1D929A9596
:103C7000E9F73D872E876F87598B488BDE011796B2
:103C800001900D928A95E1F7CE0107960E94DE1F02
:103C900081113EC086E0FE013796DE01119601904B
:103CA0000D928A95E1F7FF81E8856A857B8561152C
:103CB000710531F0EF3F31F481E0FF3F19F403C0AB
:103CC00081E001C080E080FD23C02091AD0230E0A2
:103CD000C9010196877099274091DE0250E0841750
:103CE000950779F1F983EA837D836C8396E0929F4F
:103CF000D001939FB00D1124A255BD4FFE01319606
:103D000001900D929A95E1F78093AD020E9476257D
:103D100016E08091DE029091AD028917F9F0189FAC
:103D2000C001112482559D4F0E94DE1F8823B1F0EF
:103D30008091DE0290E00196877099278093DE02E1
:103D4000E8CF0E94AA211092AD021092DE02E7EAAB
:103D5000F2E086E0DF011D928A95E9F767960FB6DB
:103D6000F894DEBF0FBECDBFDF91CF911F910895B4
:103D700020918402309185022817390771F09093C1
:103D8000850280938402E091BC01F091BD013097DF
:103D900021F00084F185E02D09940895209182029C
:103DA000309183022817390771F090938302809332
:103DB0008202E091BC01F091BD01309721F00680B4
:103DC000F781E02D09940895E091BC01F091BD01C7
:103DD000309721F00190F081E02D099480E0089562
:103DE000EF92FF920F93CF93DF93C42FD22FFC015A
:103DF00082818823D1F04093A5010E94E52290930F
:103E000081028093800280E28C0F883008F06DC0C0
:103E1000C77081E001C0880FCA95EAF7DF91CF91A2
:103E20000F91FF90EF900C94CA218091A501481347
:103E30004BC080918002909181020E94AD22883C0B
:103E4000910508F041C0CD17C9F080E28C0F883091
:103E500040F4C77081E001C0880FCA95EAF70E945C
:103E6000BF2180E28D0F883048F481E09D2F97704C
:103E700001C0880F9A95EAF70E94CA21093319F008
:103E8000E12CF12C03C080E5E82EF12C802F0E945C
:103E90000D22E114F10451F08FE99FE00197F1F751
:103EA00000C0000091E0E91AF108F3CF802F0E94D2
:103EB000D42180E28D0F8830C0F4D77081E001C03A
:103EC000880FDA95EAF70AC080E28C0F883068F430
:103ED000C77081E001C0880FCA95EAF7DF91CF91E2
:103EE0000F91FF90EF900C94BF21DF91CF910F9134
:103EF000FF90EF9008959091D00190FF04C09695A7
:103F0000981740F003C0811105C090E0961710F497
:103F10000C94B30A61E00C94220A882311F0FA0190
:103F200001C0FB010994E5EDF1E01182828184601A
:103F3000828308956091D001669570E04BE050E077
:103F400085E191E00E948F29892B19F481E080930B
:103F5000D6010E94EC259093CB018093CA018091F9
:103F6000D70184608093D70108950E949B24292F54
:103F70002F70E92FE295EF704E2F50E0FA01329743
:103F8000EE30F105B8F4E459FF4F0C947A29803FE4
:103F900099F018F4883E70F40FC0843F59F40CC0B7
:103FA000883E50F0813F31F407C0822F8695869578
:103FB0008695089580E0089581E008959F92AF92DC
:103FC000BF92CF92DF92EF92FF920F931F93CF9306
:103FD000DF93CDB7DEB761970FB6F894DEBF0FBEA3
:103FE000CDBF8C0185E0F801DE011D9601900D9298
:103FF0008A95E1F7F80190818181E2803091A702F2
:104000006091A8024091AA025091AB02411551055E
:1040100031F06F3F31F421E03F3F19F403C021E05C
:1040200001C020E0F22FF1709F2E20FD23C1F80186
:10403000C380D48027EAA22E22E0B22EF090A902FB
:10404000F601E41BF50BFF2009F4CEC02091AC0271
:10405000E83CF10508F099C0422F407F09F051C0BB
:10406000681311C039130FC0FE2CE1100CC02F7063
:1040700020612093AC02C5010E94BD0A8091AC0270
:10408000F801858337C1CD2831F08F3F31F421E02D
:104090009F3F19F403C021E001C020E020FD03C0D0
:1040A00021E02E2502C020E030E0F22FF170FF2E3B
:1040B00020FF1DC02091DE024091AD0256E0241782
:1040C00009F4F6C030E0529FF001539FF00D112427
:1040D000E255FD4F6181861306C06081961303C0CF
:1040E0006281E61204C02F5F3F4F2770E8CFFE2C9D
:1040F000EE2009F4FFC08091AC0281608093AC0295
:1041000050C0681307C0391305C0E11003C0F8019F
:1041100025838DC09D878E878D859E850E94B51FC6
:10412000882369F1EE2059F12091AC02822F82950B
:104130008F7090E0029774F08091A7029091A8028E
:1041400098878F831986DB86CA862C87CE010796CF
:104150000E94BD0A86E0F801A7EAB2E001900D9244
:104160008A95E1F70E9480250DC06817E1F09D87D0
:104170008E878D859E850E94B51F81111EC0C80146
:104180000E94BD0AFF24F394B5C0422F407F69F717
:1041900087EA92E00E94BD0A86E0F50111928A95B5
:1041A000E9F7F12CA7C03913E2CFE110E0CFF80115
:1041B0002583C8010E94BD0A57C0EE2001F320915B
:1041C000AC02822F82958F7090E002971CF2809152
:1041D000A7029091A8029A8389831B82DD82CC82F8
:1041E0002E83CE010196B4CFE83CF105E8F5FE2C14
:1041F000EE2029F2681327C0391325C02091AC02A4
:1042000020FD18C0822F82958F70482F50E04115F5
:10421000510581F0F80125834F30510541F08F5F42
:10422000982F9295907F822F8F70892B8583C8015C
:104230000E94BD0A86E0F801A7EAB2E001900D9263
:104240008A95E1F757C09D878E878D859E850E9450
:10425000B51F81117FCF8091AC0281608093AC0249
:10426000C8010E94BD0A46C086E0F50111928A95F8
:10427000E9F740C0EE2009F482CF9D878E878D85B7
:104280009E850E94B51FF82E882309F478CF86E01A
:10429000F801A7EAB2E001900D928A95E1F78091CA
:1042A000A7029091A8020E949B240E94802522C010
:1042B0009D878E878D859E850E949B24292F229520
:1042C0002F70223028F49F7039F0811105C00BC087
:1042D000243028F49F7049F4805E883020F0C801B3
:1042E0000E94BD0A9F2CF92C05C0F8019581907F92
:1042F00099F7F9CF8F2D61960FB6F894DEBF0FBEF8
:10430000CDBFDF91CF911F910F91FF90EF90DF9084
:10431000CF90BF90AF909F90089580E090E00E9472
:10432000CE1E80E090E00E94B81E1092FF02109214
:10433000FE020E94F923EEEDF1E086E0DF011D921E
:104340008A95E9F71092DB011092D801109286024B
:104350000C9404061092000380911401882331F01C
:104360008091AF0187FF02C08EE101C086E0E9E8DD
:10437000F2E0DF011D928A95E9F70C948D218823E4
:1043800041F08095909100038923809300030C9461
:10439000F9230895882339F090910003892B8093A5
:1043A00000030C94F92308958823B1F19CEF980F32
:1043B000913A30F4682F87E892E00E941A2314C0E3
:1043C00090E2980F983090F4877021E030E0A901D6
:1043D00002C0440F551F8A95E2F7CA01809590915B
:1043E00000038923809300030C94F9239BE5980F25
:1043F000933020F480E090E00C94CE1E98E5980F66
:10440000973120F480E090E00C94B81E8D3E20F0AF
:104410000E942E060C9404060895CF93882309F475
:1044200072C0C82F8CEF8C0F813AC0F580911401B7
:104430008823E1F08091AF0187FF18C0EC2FE6954B
:10444000E695E695F0E0E957FD4F8281282F30E0B0
:104450004C2F477081E090E002C0880F991F4A9569
:10446000E2F782239323892B61F412C0E9E8F2E09A
:104470008FE892E02191C21721F08E179F07D1F7A4
:1044800007C06C2F87E892E00E941A230E94F9234C
:104490006C2F87E892E00E94422310C080E28C0FCC
:1044A000883078F4C77081E090E001C0880FCA9529
:1044B000EAF790910003892B80930003CF910C942D
:1044C000F923EBE5EC0FE33040F4F0E0E459FE4F64
:1044D000808190E0CF910C94CE1EE8E5EC0FE7319F
:1044E00050F4F0E0EE0FFF1FE159FE4F8081918103
:1044F000CF910C94B81ECD3E30F08C2F0E94E70671
:10450000CF910C940406CF91089580E0089578949B
:104510001F920F920FB60F9211248F939F93AF9318
:10452000BF938091060390910703A0910803B09177
:1045300009030196A11DB11D809306039093070303
:10454000A0930803B0930903BF91AF919F918F91FE
:104550000F900FBE0F901F9018959C014FB7F894C5
:104560008091060390910703A0910803B09109037D
:104570004FBF821B930B08952FB7F89460910603E9
:104580007091070380910803909109032FBF08954C
:10459000CF92DF92EF92FF926B017C010E94420763
:1045A00081110EC00E94BC22C61AD70AE80AF90A75
:1045B000C092A701D092A801E092A901F092AA01AD
:1045C000FF90EF90DF90CF9008952FB7F8948091EF
:1045D000060390910703A0910803B09109032FBF30
:1045E00008951F920F920FB60F9211248F939F93ED
:1045F000AF93BF938091BE01811113C080910603D8
:1046000090910703A0910803B09109034196A11D61
:10461000B11D8093060390930703A0930803B09302
:104620000903BF91AF919F918F910F900FBE0F9093
:104630001F901895209114012223C9F02091AF01F9
:1046400027FF15C0262F2695269526952E31C8F4CE
:10465000FC01E20FF11D677081E090E001C0880F5E
:104660006A95EAF780959281892382830895FC01F7
:1046700006962281621301C012823196E817F9076B
:10468000C1F70895209114012223C1F02091AF01B8
:1046900027FF14C0262F2695269526952E3130F516
:1046A000FC01E20FF11D677081E090E001C0880F0E
:1046B0006A95EAF79281892B82830895FC013296EC
:1046C0002FEF30E04191641789F02F3F19F4411129
:1046D00001C0232F3F5F3630A9F72F3F39F0FC018F
:1046E000E20FF11D27FDFA95628308950895CF9397
:1046F00084E090E00E948D28C82F82E290E00E9422
:104700008D282C2F30E0A901582BCA01CF91089594
:104710006AEE7EEF80E090E00E94BF2860E082E0D9
:1047200090E00E94A12860E083E090E00E94A12830
:1047300010920203109203031092040310920503D7
:1047400060E084E090E00E94A12860E082E290E0D6
:104750000E94A12860E085E090E00E94A12860E02E
:1047600086E090E00E94A1286FEF87E090E00E9431
:10477000A12840E050E0BA0188E090E00E94B32810
:1047800060E08DE090E00E94A12840E050E0BA0196
:1047900088E190E00E94B32860E087E190E00E9409
:1047A000A12840E050E0BA018CE190E00E94B328DB
:1047B00060E070E080E290E00E94BF2840E050E0BE
:1047C000BA0188E190E00E94B32840E050E0BA01CD
:1047D0008FE090E00E94B32840E050E0BA0183E10E
:1047E00090E00C94B3288091010381111092010391
:1047F0000895909100038091FF02892B2091FE0281
:10480000982F922B90938702809101038823D9F0EF
:10481000892B8093870280911401882331F0809145
:10482000AF0187FF02C08EE101C086E0E9E8F2E057
:1048300090E0815028F021912223D9F39F5FF9CF96
:1048400091110E94F323E091BC01F091BD013097DA
:10485000A9F080911401882359F08091AF0187FF5E
:1048600007C0809187028093880285E08093870249
:104870000280F381E02D87E892E009940895CF93B8
:10488000C091B001C2FB992790F9981781F080FB85
:10489000C2F9C093B0016091AF0184E090E00E9442
:1048A000A1286C2F82E290E0CF910C94A128CF91A7
:1048B0000895BF92CF92DF92EF92FF920F931F93D2
:1048C000CF93DF938C01C090AB01D090AC01E0900E
:1048D000AD01F090AE018091020390910303A0918D
:1048E0000403B0910503C82AD92AEA2AFB2ACFE19A
:1048F000D0E0D701C6010C2E04C0B695A7959795B8
:1049000087950A94D2F780FD04C0219790F7B12CC7
:1049100007C0BC2EB8018C2F0E947A080197A9F31A
:104920008B2DDF91CF911F910F91FF90EF90DF9032
:10493000CF90BF900895CF93DF93EC010E9459244C
:10494000BE010E947A08DF91CF910895292F220F8E
:10495000920F990F890F682F669566956695982F27
:10496000977085E0689FB001112440E050E080E03E
:10497000FB01E40FF51FE152FD4F208130E0092ECD
:1049800002C0369527950A94E2F721703327042E4A
:1049900001C0220F0A94EAF7822B4F5F5F4F453028
:1049A000510531F70895292F220F920F990F890F82
:1049B000E82FE695E695E695877051E001C0550F22
:1049C0008A95EAF785E0E89FF0011124E152FD4F56
:1049D00020E030E070E04081CB01022E02C09695CD
:1049E00087950A94E2F7817081958427852384272F
:1049F00081932F5F3F4F2530310569F7089560930C
:104A0000AB017093AC018093AD019093AE010C9417
:104A10008D210F931F9341E050E060E070E004C0EF
:104A2000440F551F661F771F8A95D2F74095509502
:104A3000609570958091AB019091AC01A091AD0112
:104A4000B091AE018A019B01082319232A233B233D
:104A5000C901B8011F910F910C94FF242091FD0210
:104A6000809582238093FD02982F977041F430E067
:104A7000482F082E000C550B2417350721F4909170
:104A8000B00192FF07C08595859585950E940925FF
:104A90001092FD0208950F931F9341E050E060E0F3
:104AA00070E004C0440F551F661F771F8A95D2F728
:104AB0008091AB019091AC01A091AD01B091AE019C
:104AC0008A019B01082B192B2A2B3B2BC901B8010A
:104AD0001F910F910C94FF246093020370930303C2
:104AE00080930403909305030C948D218091DE0242
:104AF0009091AD02891719F08F5F8770FBCF0895F1
:104B00000F931F93CF93DF938091AC0282958F70A8
:104B100009F05DC08091A902882309F458C08091F2
:104B2000DE021091AD026091A7027091A802C091BF
:104B3000AA02D091AB0291E06F3F09F090E0292FDB
:104B400006E0811709F443C0209721F07F3F21F050
:104B500030E003C031E001C0322F90E030FD34C0BE
:104B6000089FF001099FF00D1124DF01A255BD4FF0
:104B700011963C911197371327C03C91361324C0EE
:104B800012963C91129731111FC013964D915C9172
:104B900014974C1B5D0B483C5105B0F48091AC025E
:104BA0008F7080618093AC02ED54FD4F80818F70D7
:104BB0008061808387EA92E00E94BD0ADF91CF91F5
:104BC0001F910F910C94762501968770BACFDF91D3
:104BD000CF911F910F9108950E94420781110C946B
:104BE000E5220E940516CB01089562E070E083E2A1
:104BF00091E00C94CC2662E070E083E291E00C94AA
:104C0000D5260E949D03882361F084E193E00E94F1
:104C1000870381E090E00E94AE27892B11F40C9469
:104C20009A03089580911303883039F460E084E199
:104C300093E00E94620A109213030895CF93DF93CA
:104C4000D62FC72F0E94012680E090E00E94AE2759
:104C5000892BF1F4ED2FFC2F80E090E0DC01A15FC7
:104C6000BC4F2C912193019684309105B9F70E9495
:104C70000516DC01CB010296A11DB11D80930B032B
:104C800090930C03A0930D03B0930E0381E001C039
:104C900080E0DF91CF910895CF93DF93D62FC72F78
:104CA0000E94122660910B0370910C0380910D03FA
:104CB00090910E030E94C822ED2FFC2F80E090E01F
:104CC0002191DC01A15FBC4F2C93019684309105AA
:104CD000B9F7DF91CF9108958EE14A9B02C08150D0
:104CE000E1F74A9BFECF08955A9880E28A95F1F742
:104CF0005A9A0895FC012AE02A95F1F790E020E005
:104D000080E031E0261779F040E14A95F1F7880F0D
:104D10004A9B02C08160932700C0000040E14A9591
:104D2000F1F72F5FEFCF20E12A95F1F729B100C00D
:104D3000000030E13A95F1F722FB222720F9922773
:104D40002081920F90830895EF92FF920F931F930B
:104D5000CF93DF931F92CDB7DEB719828C017C0110
:104D6000E60EF11C0E151F0559F00E946C2668E036
:104D7000CE0101960E947A26F80181938F01F2CF2D
:104D800081E09981911180E00F90DF91CF911F9187
:104D90000F91FF90EF90089590931E0380931D0351
:104DA00060931C03529A5A9A089590931E0380931D
:104DB0001D0360931C0352985A9AEA9AE9E6F0E0C0
:104DC00080818F7C80830895615091E001C0990FAC
:104DD0006A95EAF720E031E0992361F0492F4823F2
:104DE00019F05A9A232701C05A9840E24A95F1F7E0
:104DF0009695F2CF222311F05A9A01C05A9880E278
:104E00008A95F1F75A980895FF920F931F93CF93C5
:104E1000DF93EC018C01060F111DC017D10741F083
:104E2000F9900E94742668E08F2D0E94E426F5CF49
:104E3000DF91CF911F910F91FF9008951F920F92D4
:104E40000FB60F9211240F931F932F933F934F93FD
:104E50005F936F937F938F939F93AF93BF93EF93E2
:104E6000FF93CF93DF931F92CDB7DEB719820E94D5
:104E70006C2667E0CE0101960E947A26382F36957F
:104E800036953695932F96959570232F2570920F12
:104E9000292F2370969596958770920F891348C095
:104EA0008981811145C080911C03831708F440C09B
:104EB00080E18A95F1F75A9A529AA2E0AA95F1F701
:104EC00000C000911D0310911E03B8E03B9F000D30
:104ED000111D11245A98F8016581662321F08681FD
:104EE00097810E9404270E947426F0E1FA95F1F759
:104EF0005A9852985A9A80E18A95F1F7D8011296F9
:104F00006C911297662369F013968D919C9114977A
:104F10000E94A426D801ED91FC91811105C082E088
:104F200004C0D801ED91FC9188E080830E946C263A
:104F30000F90DF91CF91FF91EF91BF91AF919F9132
:104F40008F917F916F915F914F913F912F911F9121
:104F50000F910F900FBE0F901F9018950F931F93F6
:104F6000CF93DF9320911C0330E0281739070CF40E
:104F700071C09C0193E0220F331F9A95E1F7C09115
:104F80001D03D0911E03C20FD31FF894529A5A9852
:104F900045E04A95F1F70000982F96959570857039
:104FA000890F982F937086958695890F8901082B14
:104FB0000E94742684E08A95F1F700C067E0802F94
:104FC0000E94E42640E14A95F1F752985A9A4A998C
:104FD00002C000C0FCCF87E090E04A9B0EC0019762
:104FE00051F4529A5A9AE881F98181E08083789449
:104FF00081E090E031C000C0F0CF6D81662381F088
:105000008E819F810E94A42681110AC0529A5A9AC9
:10501000E881F98182E08083789482E090E01CC08E
:105020000E946C2680E28A95F1F75A98529A40E1E4
:105030004A95F1F76A81662321F08B819C810E9459
:1050400004270E947426E881F9811082789480E018
:1050500090E002C084E090E0DF91CF911F910F912A
:1050600008958F929F92AF92BF92CF92DF92EF926C
:10507000FF92CF93DF93EC01688179818A819B81D4
:10508000611571058105910521F464E279ED8BE5E7
:1050900097E02DE133EF41E050E00E94D52849012F
:1050A0005A019B01AC01A7EAB1E40E94F4286B010C
:1050B0007C01ACEEB4EFA50194010E940229DC0151
:1050C000CB018C0D9D1DAE1DBF1DB7FF03C0019709
:1050D000A109B04888839983AA83BB839F77DF9116
:1050E000CF91FF90EF90DF90CF90BF90AF909F90C7
:1050F0008F9008950E943128089580E091E00E94E9
:1051000031280895A0E0B0E0809300019093010160
:10511000A0930201B09303010895F999FECF92BDC7
:1051200081BDF89A992780B50895A6E1B0E044E0E2
:1051300050E00C94C728A8E1B0E042E050E00C94A5
:10514000C728262FF999FECF92BD81BDF89A019705
:1051500000B4021639F01FBA20BD0FB6F894FA9ABF
:10516000F99A0FBE08950396272F0E94A2280E9445
:10517000A128252F0E94A228242F0C94A228019652
:10518000272F0E94A2280C94A128DC01CB01FC014E
:10519000F999FECF06C0F2BDE1BDF89A319600B490
:1051A0000D9241505040B8F70895052E97FB1EF41C
:1051B00000940E94EC2857FD07D00E94072907FCA5
:1051C00003D04EF40C94EC285095409530952195E1
:1051D0003F4F4F4F5F4F0895909580957095619523
:1051E0007F4F8F4F9F4F08950E942929A59F900DB3
:1051F000B49F900DA49F800D911D11240895B7FFB9
:105200000C94F4280E94F428821B930B0895A1E2C9
:105210001A2EAA1BBB1BFD010DC0AA1FBB1FEE1F30
:10522000FF1FA217B307E407F50720F0A21BB30B7B
:10523000E40BF50B661F771F881F991F1A9469F7F7
:1052400060957095809590959B01AC01BD01CF0153
:105250000895A29FB001B39FC001A39F700D811D4F
:105260001124911DB29F700D811D1124911D08956F
:10527000991B79E004C0991F961708F0961B881FA8
:105280007A95C9F78095089587FB082E062687FD35
:10529000819567FD61950E9438290EF4919507FC70
:1052A00081950895AA1BBB1B51E107C0AA1FBB1F14
:1052B000A617B70710F0A61BB70B881F991F5A95A2
:1052C000A9F780959095BC01CD01089597FB072E15
:1052D00016F4009407D077FD09D00E94522907FCEC
:1052E00005D03EF4909581959F4F089570956195F6
:1052F0007F4F0895EE0FFF1F0590F491E02D099464
:105300000E942929332312F48A1B9B0B0C948A29AF
:105310000E942929B7FF0895821B930B0895FC0171
:105320004150504030F001900616D1F73197CF012F
:0C5330000895882799270895F894FFCF6E
:10533C0001000000000C000C0C01C510221103111F
:10534C00FF10FB100101191A1B1C1D1E1F2021220E
:10535C000102010A03040B03040F031303081403D3
:10536C0000000000010202020206060609090909F2
:10537C0009090F0F0F0F0F0F1515151819191919FA
:10538C00191919191919232425252525252594665C
:10539C0097C600000000F4F5F6F73133818283E202
:1053AC0000E900EA00B500B600B700CD008301CCDF
:1053BC00008A019201940121022302240225022673
:0E53CC000227022A02B300B4006F0070000036
:00000001FF
